:020000040000FA
:06000000F7EF13F01200FF
:0A00060004005228000099010000D8
:10001000020000004F2800009601000003000000CD
:10002000392800009E01000001000000482800005F
:080030008A0100000700000036
:0800380001015F51010A01E022
:1000400012009CC082F19DC083F19EC084F19FC0CC
:1000500085F13CEC11F05DC1E9FF5EC1EAFFEE50B5
:10006000EFCFEAFFE96E86C1EEFF87C1EEFF88C1E0
:10007000EEFF89C1EEFF120001015F51010A01E0AC
:100080001200A0C082F1A1C083F1A2C084F1A3C07C
:1000900085F13CEC11F05DC1E9FF5EC1EAFFEE5075
:1000A000EFCFEAFFE96E86C1EEFF87C1EEFF88C1A0
:1000B000EEFF89C1EEFF12006BC19CF000019D6B49
:1000C0009E6B9F6B060E9D27000E9E239F236BC188
:1000D00082F19DC083F19EC084F19FC085F1FFEC49
:1000E00010F086C19CF087C19DF088C19EF089C147
:1000F0009FF06BC1A0F00001A16BA26BA36B800EFF
:10010000A027050EA123000EA223A323A0C082F1E5
:10011000A1C083F1A2C084F1A3C085F1FFEC10F06F
:1001200086C1A0F087C1A1F088C1A2F089C1A3F067
:100130006FCF33F10101400E006F9CC001F19DC0F3
:1001400002F19EC003F19FC004F113EC0CF005C155
:10015000A4F00001A45102E001016F810001A56B30
:1001600012006FCF33F1A4C000F14DEC0CF001018F
:100170006F9112000001A5AB10D0080EB65F000E03
:10018000B75BB73504E2B6510008000EB75505E37A
:10019000A56B020EA66F010173811200A0C061FF62
:1001A000A1C062FFA2C063FFA3C064FF080E656E1A
:1001B0000001A65111E1CEC066FFCFC067FFD0C0DD
:1001C00068FFD1C069FFD2C06AFFD3C06BFFD4C043
:1001D0006CFFD5C06DFF1200800E666EAEC067FF6B
:1001E000AFC068FFB0C069FFA651190A01E19AD0FB
:1001F000010A01E194D00F0A01E18ED0010A01E168
:1002000088D0030A01E17DD0010A01E177D0070A15
:1002100072E0010A6DE0030A68E0010A60E01F0A6B
:100220005BE0010A56E0030A4EE0010A46E0070AD5
:1002300041E0010A3CE0030A37E0010A30E00F0A1E
:1002400028E0010A21E0030A1CE0010A12E0070A83
:100250000DE0010A08E0030A01E012000F016A6ADA
:100260006B6A030E0BD00F016A6A06D00F01010EF4
:1002700002D00F01050E6A6E6B6A040E6C6E050EDD
:1002800057D00F016A6A08D00F01010E6A6E6B6ABF
:100290003DD00F01020E6A6E6B6A010E37D00F015E
:1002A0006A6A6B6A020E32D00F01410E08D00F014C
:1002B000420E05D00F01430E02D00F01470E6A6EA9
:1002C0006B6A040E23D00F016A6A6B6A060E6C6EAD
:1002D0002FD00F01100E05D00F01120E02D00F010A
:1002E000130E6A6E6B6A070E11D00F01110E0BD040
:1002F0000F01300E08D00F01310E05D00F01320E64
:1003000002D00F01360E6A6E6B6A090E6C6E060E15
:100310000FD00F016A6A09D00F01200E05D00F011E
:10032000210E02D00F01220E6A6E6B6A6C6A080EF3
:100330006D6E12000F0E6514080801E07FD10001F8
:10034000A66B66CFA7F0E00EA715800A01E170D179
:10035000E00A01E10CD1200A01E1AED0600A47E0D9
:10036000200A01E067D1A5AB69D1A5AD67D1A55140
:10037000A719100B01E003D1BA0EAC25E96E000EEF
:10038000AD21EA6E67CFEEFF68CFEEFF69CFEEFFDB
:100390006ACFEEFF6BCFEEFF6CCFEEFF6DCFEEFFBF
:1003A000A7510E0BE842E81C070B146E156AE850C3
:1003B000AC271550AD23AC51B25DAD51B35902E23B
:1003C000A56B67D0A579200EA711F00BCE6FA7A162
:1003D0002CD1BA0EA86F000EA96F0101A80E5D6F97
:1003E000000E5E6FE2EC05F00001A56B1CD1A59B31
:1003F00067CFAEF067CFCFF068CFAFF068CFD0F067
:1004000069CFB0F069CFD1F0D26BD36BD46BD56B21
:100410000101A80E5D6F000E5E6F43EC06F0010156
:10042000605101E000D10001B1A344D0A7A326D0C0
:10043000A7A10AD0A7510C0BE842E842E81C030B25
:10044000010FAA6FAB6B04D0B2C0AAF0B3C0ABF07F
:10045000B251AA191EE1B351AB191BE1A56B6A0E8B
:10046000A86F0F0EA96F0101A80E5D6F000E5E6FE1
:10047000E2EC05F00001600ECE6FD5D0A7A10BD045
:100480006C506D1006E1B2516A1802E1B3516B185D
:1004900002E00E0E76D0B2C0AAF0B3C0ABF0A58BCE
:1004A000A58DA599AC6BAD6BF40EB66F010EB76F51
:1004B000600E38D0070E65D0A59B67CFAEF067CF32
:1004C000CFF068CFAFF068CFD0F069CFB0F069CF90
:1004D000D1F0D26BD36BD46BD56B0101A80E5D6FDD
:1004E000000E5E6F43EC06F00101605101E09BD00D
:1004F0000001B1A13AD0AC6BAD6BA56B040ED880F6
:10050000B255000EB35510E2F40EB66F010EB76F80
:10051000A58BD20EA86F000EA96FB2C0D2F0B3C0E7
:10052000D3F0410ECE6F81D0B251040A0CE0070A1D
:1005300008E0010A04E0030A08E14F0E05D04B0E63
:1005400003D0470E01D0430ECE6FB2C0AAF0B3C0A5
:10055000ABF0D20EA86F000EA96F0101A80E5D6F5F
:10056000000E5E6F37EC05F05ED0060E0AD0A5AB2C
:1005700065D0A5BD63D0A551A719100B04E0A56BEC
:10058000010EA66F52D0CF0EA86F000EA96FAC510E
:10059000B25DB86FAD51B359B96F070ED880B85579
:1005A000000EB95502E2CE6B29D0A56BB851070AEF
:1005B00023E0010A1DE0030A18E0010A12E0070A1D
:1005C0000CE0010A06E0030A1CE10D0ECE6F010EDD
:1005D00016D00B0ECE6F020E12D0090ECE6F030E88
:1005E0000ED0070ECE6F040E0AD0050ECE6F07D0C8
:1005F000030ECE6F060E03D0010ECE6F070EAA6F4C
:10060000AB6BA7B902D0CE9901D0CE890101A80E5B
:100610005D6F000E5E6F37EC05F00001AA51AC274C
:10062000AB51AD23A57960C1A6F001017381120021
:0E063000A56B1200030EA66F0101738112006C
:02063E00D9CF12
:10064000E6FFE1CFD9FFD950F90FE96EFF0EDA20AE
:10065000EA6EEE50ED1001E12DD1F90EDBCF14F072
:10066000FA0EDBCF15F0040E145C000E155821E2D3
:10067000FD0EDBCFE9FFFE0EDBCFEAFFEF50E66EAB
:10068000FB0EDBCFE9FFFC0EDBCFEAFFE552E750C4
:10069000EF6EFB0EDB2AFC0E01E3DB2AFD0EDB2AEC
:1006A000FE0E01E3DB2AF90EDB06FA0ECCE2DB06D6
:1006B000CAD7F90EDBCF14F0FA0EDBCF15F0080E17
:1006C000145C000E155838E2FD0EDBCFE9FFFE0E7C
:1006D000DBCFEAFFEECF14F0EECF15F0EECF16F041
:1006E000EFCF17F0FB0EDBCFE9FFFC0EDBCFEAFF0D
:1006F00014C0EEFF15C0EEFF16C0EEFF17C0EEFFF0
:10070000D950FB0FE96EFF0EDA20EA6E040EEE26DA
:10071000000EED22D950FD0FE96EFF0EDA20EA6ED1
:10072000040EEE26000EED22D950F90FE96EFF0EF1
:10073000DA20EA6E040EBAD0F90EDBCF14F0FA0E0E
:10074000DBCF15F0100E145C000E155848E2FD0EBC
:10075000DBCFE9FFFE0EDBCFEAFFEECF14F0EECFEA
:1007600015F0EECF16F0EECF17F0EECF18F0EECF7B
:1007700019F0EECF1AF0EFCF1BF0FB0EDBCFE9FF45
:10078000FC0EDBCFEAFF14C0EEFF15C0EEFF16C073
:10079000EEFF17C0EEFF18C0EEFF19C0EEFF1AC043
:1007A000EEFF1BC0EEFFD950FB0FE96EFF0EDA2003
:1007B000EA6E080EEE26000EED22D950FD0FE96E0E
:1007C000FF0EDA20EA6E080EEE26000EED22D9505A
:1007D000F90FE96EFF0EDA20EA6E080E67D0FD0E03
:1007E000DBCFE9FFFE0EDBCFEAFFEECF14F0EECF5A
:1007F00015F0EECF16F0EECF17F0EECF18F0EECFEB
:1008000019F0EECF1AF0EECF1BF0EECF1CF0EECFCA
:100810001DF0EECF1EF0EECF1FF0EECF20F0EECFAA
:1008200021F0EECF22F0EFCF23F0FB0EDBCFE9FF7C
:10083000FC0EDBCFEAFF14C0EEFF15C0EEFF16C0C2
:10084000EEFF17C0EEFF18C0EEFF19C0EEFF1AC092
:10085000EEFF1BC0EEFF1CC0EEFF1DC0EEFF1EC072
:10086000EEFF1FC0EEFF20C0EEFF21C0EEFF22C052
:10087000EEFF23C0EEFFD950FB0FE96EFF0EDA202A
:10088000EA6E100EEE26000EED22D950FD0FE96E35
:10089000FF0EDA20EA6E100EEE26000EED22D95081
:1008A000F90FE96EFF0EDA20EA6E100EEE5E000E12
:1008B000ED5AC9D6E552E7CFD9FF1200D9CFE6FFEE
:1008C000E1CFD9FFD950F90FE96EFF0EDA20EA6EB9
:1008D000EE50ED1001E1C7D0F90EDBCF14F0FA0EA7
:1008E000DBCF15F0040E145C000E155822E2FD0E4D
:1008F000DBCFF6FFFE0EDBCFF7FF0800F550E66E0C
:10090000FB0EDBCFE9FFFC0EDBCFEAFFE552E75041
:10091000EF6EFB0EDB2AFC0E01E3DB2AFD0EDB2A69
:10092000FE0E01E3DB2AF90EDB06FA0ECBE2DB0654
:10093000C9D7F90EDBCF14F0FA0EDBCF15F0080E95
:10094000145C000E15583CE2FD0EDBCFF6FFFE0EE8
:10095000DBCFF7FF0900F5CF14F00900F5CF15F054
:100960000900F5CF16F00800F5CF17F0FB0EDBCF2E
:10097000E9FFFC0EDBCFEAFF14C0EEFF15C0EEFF6F
:1009800016C0EEFF17C0EEFFD950FB0FE96EFF0E49
:10099000DA20EA6E040EEE26000EED22D950FD0F8D
:1009A000E96EFF0EDA20EA6E040EEE26000EED224E
:1009B000D950F90FE96EFF0EDA20EA6E040E4FD01F
:1009C000FD0EDBCFF6FFFE0EDBCFF7FF0900F5CF04
:1009D00014F00900F5CF15F00900F5CF16F0090065
:1009E000F5CF17F00900F5CF18F00900F5CF19F091
:1009F0000900F5CF1AF00800F5CF1BF0FB0EDBCF96
:100A0000E9FFFC0EDBCFEAFF14C0EEFF15C0EEFFDE
:100A100016C0EEFF17C0EEFF18C0EEFF19C0EEFFC4
:100A20001AC0EEFF1BC0EEFFD950FB0FE96EFF0EA0
:100A3000DA20EA6E080EEE26000EED22D950FD0FE8
:100A4000E96EFF0EDA20EA6E080EEE26000EED22A9
:100A5000D950F90FE96EFF0EDA20EA6E080EEE5E4D
:0E0A6000000EED5A2FD7E552E7CFD9FF120056
:020A6E005DC168
:100A7000E9FF5EC1EAFF090EEB50000901E19FD0DA
:100A80005DC1E9FF5EC1EAFF090EEB50100B18E0F3
:100A90000101606B010E5F6F5DC1E9FF5EC1EAFF9E
:100AA0000C0EE926000EEA22EECF14F0EFCF15F07F
:100AB00005D015C0FAFF00011450F96EFADF1200DC
:100AC0005DC1E9FF5EC1EAFF090EEB50070B010AA9
:100AD00039E0020A37E0060A6EE15DC1E9FF5EC156
:100AE000EAFF020EE926000EEA22EECFE6FFEFCF84
:100AF000E6FF5DC1E9FF5EC1EAFFEECFE6FFEFCFA3
:100B0000E6FF5DC1E9FF5EC1EAFF0C0EE926000EBB
:100B1000EA22EECF16F0EFCF17F05DC1E9FF5EC11C
:100B2000EAFF040EE926000EEA2200011650EE2428
:100B3000146E1750EE20156E14C0E6FFE66E5EECE4
:100B400004F034D05DC1E9FF5EC1EAFF020EE92680
:100B5000000EEA22EECFE6FFEFCFE6FF5DC1E9FF30
:100B60005EC1EAFFEECFE6FFEFCFE6FF5DC1E9FF32
:100B70005EC1EAFF0C0EE926000EEA22EECF16F067
:100B8000EFCF17F05DC1E9FF5EC1EAFF040EE92671
:100B9000000EEA2200011650EE24146E1750EE20CB
:100BA000156E14C0E6FFE66E1FEC03F0186E060E1D
:100BB000E15E185004D00101060E606F12000101C1
:100BC000606B12005DC1E9FF5EC1EAFF090EEB50E8
:100BD000000956E05DC1E9FF5EC1EAFF090EEB5076
:100BE000100B18E00101606B020E5F6F5DC1E9FF41
:100BF0005EC1EAFF0C0EE926000EEA22EECF14F0E9
:100C0000EFCF15F005D015C0FAFF00011450F96EB2
:100C1000FADF12005DC1E9FF5EC1EAFF090EEB5089
:100C2000070B030A02E0010A27E15DC1E9FF5EC18B
:100C3000EAFF020EE926000EEA22EECFE6FFEFCF32
:100C4000E6FF5DC1E9FF5EC1EAFF0C0EE926000E7A
:100C5000EA22EECFE6FFEFCFE6FF5DC1E9FF5EC11E
:100C6000EAFFEECFE6FFEFCFE6FF1FEC03F0146ED6
:100C7000060EE15E145004D00101070E606F1200F1
:100C80000101606B12005DC1E9FF5EC1EAFF060E63
:100C9000E926000EEA22EECF68F1EECF69F1EFCF40
:100CA0006AF1F00E01016915100A18E0700A10E0EF
:100CB000400A08E0200A49E1DE0E616F1E0E626FF5
:100CC000070E41D02E0E616F200E626F020E3BD0D8
:100CD0003E0E616F200E626F0E0E35D00F0E69153D
:100CE0000A0A22E0020A12E00A0A08E0020A2DE1DA
:100CF000160E616F1F0E626F0F0E25D08E0E616F84
:100D00001F0E626F060E636F808022D0685106E16D
:100D1000BE0E616F1F0E626F030E15D0680515E1E0
:100D2000D60E616F1F0E0DD0685106E1DE0E616FA9
:100D30001F0E626F090E07D0680507E1260E616F6E
:100D4000200E626F010E636F03D0080E606F1200F9
:100D5000080E606F61C1F6FF62C1F7FF0900F5CFB1
:100D600064F10900F5CF65F10900F5CF66F10800DF
:100D7000F5CF67F163516BE06951655D62E16851E0
:100D8000645D5FE1110E606F6A51665D03E0400EC5
:100D9000671557E061C1F6FF62C1F7FF0900F5CFA3
:100DA00014F00900F5CF15F00900F5CF16F0090091
:100DB000F5CF17F00900F5CF18F00900F5CF19F0BD
:100DC0000900F5CF1AF00800F5CF1BF05DC1E9FF6F
:100DD0005EC1EAFF060EE926000EEA2214C0EEFF0D
:100DE00015C0EEFF16C0EEFF17C0EEFF18C0EEFFF5
:100DF00019C0EEFF1AC0EEFF1BC0EEFF67AD07D0B3
:100E00005DC1E9FF5EC1EAFF080E6AC1EBFF67A999
:100E100016D0606B5F6B5DC1E9FF5EC1EAFF0C0E2F
:100E2000E926000EEA22EECF14F0EFCF15F005D040
:100E300015C0FAFF00011450F96EFADF1200606B62
:100E40001200080E6127000E6223630783D7120089
:100E50000101AB0E3B6F436F3C6B3CC144F13D6BFA
:100E60003DC145F13E6B3EC146F13F6B3FC147F18D
:100E7000406B40C148F1416B41C149F1426B42C1F5
:100E80004AF16BC182F10101836B846B856B020EA9
:100E90008327000E8423C00E8523FFEC10F086C14B
:100EA00064F087C165F088C166F089C167F06BC1E5
:100EB00082F10101836B846B856B030E8327000E27
:100EC0008423C00E8523FFEC10F086C173F087C128
:100ED00074F088C175F089C176F000018C0E6C6FDA
:100EE000010E6D6F00018A0E7B6F010E7C6F000199
:100EF000010E6B6F0001020E7A6F1200D9CFE6FF70
:100F0000E1CFD9FF020EE126DE6ADD6A8A0EE66EC7
:100F1000010EE66E62EC10F0E552E55201018F51D0
:100F200008E08A518D5D8B518E5903E3010174A154
:100F300074810101905103E0010174A374830101E4
:100F40007451010B03E16CEC13F000090101010E77
:100F5000DE6EDD6A020EE15C02E2E16AE552E16EFC
:100F6000E552E7CFD9FF120001014D5106E14B5187
:100F7000040B03E04B954B811200010E4D5D10E315
:100F80004D51146E156A153404E21450F008000E29
:100F9000155406E34C074C5103E14DC14CF14B8114
:100FA000120001015F51020A1EE0030A01E0120073
:100FB00060C082F161C083F162C084F163C085F1D9
:100FC0003CEC11F05DC1E9FF5EC1EAFFEE50EFCFEE
:100FD000EAFFE96E86C1EEFF87C1EEFF88C1EEFF32
:100FE00089C1EEFF12005DC1E9FF5EC1EAFFEE506C
:100FF000EFCFEAFFE96EEECF82F1EECF83F1EECFD5
:1010000084F1EFCF85F1FFEC10F0010187A91ED02C
:10101000600EE96E000EEA6E8651EE18146E87516E
:10102000EE18156E8851EE18166E8951EE18176E6F
:101030001598145015101610171026E1010170A113
:1010400002D024EC0EF0000161891200600EE96EFE
:10105000000EEA6E8651EE18146E8751EE18156E6A
:101060008851EE18166E8951EE18176E15981450A7
:1010700015101610171008E1010170B102D00DEC27
:101080000EF00001619912000101120E606F120052
:1010900001015F51020A1EE0030A01E0120064C070
:1010A00082F165C083F166C084F167C085F13CECD4
:1010B00011F05DC1E9FF5EC1EAFFEE50EFCFEAFF3C
:1010C000E96E86C1EEFF87C1EEFF88C1EEFF89C1E0
:1010D000EEFF12005DC1E9FF5EC1EAFFEE50EFCF07
:1010E000EAFFE96EEECF82F1EECF83F1EECF84F12D
:1010F000EFCF85F1FFEC10F0010187A91CD0640E41
:10110000E96E000EEA6E8651EE18146E8751EE18E5
:10111000156E8851EE18166E8951EE18176E1598D7
:10112000145015101610171022E1010171B17191C0
:10113000000165891200640EE96E000EEA6E8651A8
:10114000EE18146E8751EE18156E8851EE18166E53
:101150008951EE18176E15981450151016101710A7
:1011600006E1010171A1718100016599120001017F
:10117000120E606F1200D9CFE6FFE1CFD9FFE65221
:1011800001015F51020A0DE0030A3CE15DC1E9FF84
:101190005EC1EAFFEE50EFCFEAFFE96E4DC1EFFF0F
:1011A00031D05DC1E9FF5EC1EAFFEE50EFCFEAFF4B
:1011B000E96EEFCFDFFF000EDF5C0FE3DF50146E50
:1011C000156A153404E21450F008000E155405E3B6
:1011D000DFCF4DF14DC14CF115D0DF50146E156AC3
:1011E000FE0E141801E1155008E0DF50166E176A64
:1011F000FF0E161805E1175003E1DFCF4DF102D0C5
:10120000120E606FE552E552E7CFD9FF12001200CF
:0E121000120012001200120012001200120052
:02121E000101CC
:101220005F51020A10E0030A01E012005DC1E9FF0C
:101230005EC1EAFFEE50EFCFEAFFE96E57C1EEFF65
:1012400058C1EDFF12005DC1E9FF5EC1EAFFEE503B
:10125000EFCFEAFFE96EEECF57F1EDCF58F1010184
:10126000556B5751581107E0558357C152F158C17A
:1012700053F1546B120059515A1119E05B5117E0A8
:10128000800E566F558555835B51146E156A59C192
:1012900008F05AC109F05BC10DF015C00EF0A3ECC7
:1012A00013F006C052F107C053F10101546B120054
:1012B00001015F51020A10E0030A01E012005DC162
:1012C000E9FF5EC1EAFFEE50EFCFEAFFE96E59C1D8
:1012D000EEFF5AC1EDFF12005DC1E9FF5EC1EAFFFA
:1012E000EE50EFCFEAFFE96EEECF59F1EDCF5AF1B4
:1012F0000101556B5751581107E0558357C152F101
:1013000058C153F1546B120059515A1119E05B51F5
:1013100017E0800E566F558555835B51146E156A24
:1013200059C108F05AC109F05BC10DF015C00EF0AB
:10133000A3EC13F006C052F107C053F10101546B46
:10134000120001015F51020A0EE0030A01E01200DF
:101350005DC1E9FF5EC1EAFFEE50EFCFEAFFE96E43
:101360005BC1EFFF12005DC1E9FF5EC1EAFFEE5015
:10137000EFCFEAFFE96EEFCF5BF10101556B5751FB
:10138000581107E0558357C152F158C153F1546BBE
:10139000120059515A1119E05B5117E0800E566F37
:1013A000558555835B51146E156A59C108F05AC1B1
:1013B00009F05BC10DF015C00EF0A3EC13F006C0F0
:1013C00052F107C053F10101546B12006BC14EF191
:1013D00001014F6B506B516B070E4F27000E5023CE
:1013E00051236BC182F14FC183F150C184F151C1CE
:1013F00085F1FFEC10F086C14EF187C14FF188C135
:1014000050F189C151F10101556B575158110AE052
:10141000558301016E8757C152F158C153F1010143
:10142000546B120059515A1130E05B512EE06FCFCE
:1014300033F10101040E006F4EC101F14FC102F101
:1014400050C103F151C104F113EC0CF005C15CF182
:1014500001015C511AE001016E870101800E566F97
:10146000558555835B51146E156A59C108F05AC1F0
:1014700009F05BC10DF015C00EF0A3EC13F006C02F
:1014800052F107C053F10101546B12006FCF33F1D9
:101490005CC100F14DEC0CF001016E9712000101EE
:1014A00055A51CD065AC1AD00F0E6514010816E1C5
:1014B0000101728701015B51146E156A59C108F070
:1014C0005AC109F05BC10DF015C00EF0A3EC13F08A
:1014D00006C052F107C053F10101546B12004EC116
:1014E00061FF4FC162FF50C163FF51C164FF010E34
:1014F000656E010155B11AD0800E5615566F55A56F
:1015000002D0567F01D0569F01016CA502D0040E77
:1015100007D06CA302D0050E03D06CA104D07F0EBF
:1015200001015611566F56C166FF12005591666A49
:101530001200010155A33DD0080E525F000E535B0F
:10154000545B5435000E541907E6D880000E5255EE
:10155000000E5355000E54552CE355B515D057C108
:1015600014F058C115F0166A520EE96E010EEA6EBB
:10157000EE501424526FEE501520536FEE5016208B
:10158000546F0101728712005B51146E156A59C1C4
:1015900008F05AC109F05BC10DF015C00EF0A3ECC4
:1015A00013F006C052F107C053F10101546B21EC56
:0415B00014F0120021
:0C15B4000101325101E196D03251020ACF
:1015C00001E188D0030A01E012006EAE80D007511D
:1015D0000BE00FC100FF10C101FF11C102FF12C1DA
:1015E00003FF0D01D48102D00D01D49101010851F6
:1015F0000BE013C104FF14C105FF15C106FF16C19E
:1016000007FF0D01D48302D00D01D49301010951CC
:101610000BE017C108FF18C109FF19C10AFF1AC161
:101620000BFF0D01D48502D00D01D49501010A51A3
:101630000BE01BC10CFF1CC10DFF1DC10EFF1EC125
:101640000FFF0D01D48702D00D01D49701010B517A
:101650000BE01FC110FF20C111FF21C112FF22C1E9
:1016600013FF0D01D48902D00D01D49901010C5151
:101670000BE023C114FF24C115FF25C116FF26C1AD
:1016800017FF0D01D48B02D00D01D49B01010D5128
:101690000BE027C160FD28C161FD29C162FD2AC19F
:1016A00063FD0D01D48D02D00D01D49D01010E51B9
:1016B0000BE02BC164FD2CC165FD2DC166FD2EC163
:1016C00067FD0D01D48F09D00D01D49F06D0800E87
:1016D0006F6E12006FAE06D04DD80101326B33C170
:1016E0006FFF1200800E6F6E12000101326B400E10
:1016F0006F6E800E6F6E3ED80D01F86B606A0F0141
:10170000506B0E01206B306B406B506B606B706BDD
:10171000500E776E0D01D46BD56BD86BE06B110E4C
:10172000E16F220EE26F330EE36F440EE46F550E4D
:10173000E56F660EE66F770EE76FF36BF3CDF2FDA4
:10174000F3CDF1FDF3CDF0FD0F011869E30E196F34
:101750001A691B69200E736E0D011C0EFC6FFA696D
:101760000101076B086B096B0A6B0B6B0C6B0D6B44
:101770000E6B120001010651080A11E00F0A0FE07A
:10178000010A0DE0030A0BE0010A09E0070A07E07D
:10179000010A05E0030A03E0010A07E106D0410E51
:1017A000706EBA0E716E070E05D0400E706E9A0EF6
:1017B000716E010E726E12000F0140B705D0430E1C
:1017C000776E00C12FF10DD030B705D0440E776E83
:1017D00000C130F106D020B707D0450E776E00C1AA
:1017E00031F100C105F112000101056B12000F017A
:1017F00040AF06D0430E776E409F2FC105F1120017
:1018000030AF06D0440E776E409F30C105F1120014
:1018100020AF06D0450E776E409F31C105F1120012
:101820000101056B1200D9CFE6FFE1CFD9FFE652E7
:10183000DF6A080EDF5C2AE2DF50EA6A070FE96E12
:10184000010EEA22EF5020E1DF50EA6A070FE96E4D
:10185000010EEA2200C1EFFF00C105F1DF50040DC7
:10186000F3CFE9FFF4CFEAFF0F0EE926010EEA22DB
:1018700001C1EEFF02C1EEFF03C1EEFF04C1EEFFA6
:101880000101010E326F04D0DF2AD3D70101056BAD
:10189000E552E552E7CFD9FF1200D9CFE6FFE1CFFD
:1018A000D9FFE652DF6A080EDF5C17E2DF50EA6A12
:1018B000070FE96E010EEA22EF500101005D0BE116
:1018C000DF50EA6A070FE96E010EEA22EF6A010EA5
:1018D000326F056F04D0DF2AE6D70101056BE552B0
:1018E000E552E7CFD9FF1200A4A222D0500E776EA6
:1018F00060BE13D00F0150AF02D0510E08D00E01C0
:1019000020AF02D0520E03D030AF03D0530E776E0B
:1019100004D00101056BA49212000F0E6014E96E51
:10192000EA6A070EE926010EEA22EFCF05F112005E
:061930000101056B12002D
:0A19360001016C6B6E6B6F6B706B40
:10194000716B726B736B746B756B766B776B6DC150
:1019500006F175EC0BF06FEC12F06FEC11F05CEC33
:1019600000F0E6EC09F0DAEC0AF06F6A010155814B
:101970000101006BDCEC0BF06FEC0AF060860101FA
:101980006C81120074EC0CF001016CA169D00101B2
:10199000055166E0C00E0515800A2DE0C00A1EE064
:1019A000400A5CE13F0E0515040A12E0060A08E051
:1019B000030A54E101016EA151D08CEC12F04ED01B
:1019C00001016EA34BD06CB549D08FEC11F046D01D
:1019D00001016EA743D04FEC0AF040D001016CB575
:1019E0003DD03F0E0101051539E101016FA136D04F
:1019F0009AEC01F033D001016CB530D06CA32ED03D
:101A00003F0E01010515030A21E0010A16E0030A51
:101A10000BE0010A23E1010170A120D077B11ED0B3
:101A200077812DEC0EF01AD0010170A317D077B397
:101A300015D0778385EC0EF011D0010170A50ED082
:101A400077B50CD07785DDEC0EF008D0010170A7DA
:101A500005D077B703D0778735EC0FF0609EA4925E
:101A600012000101010E006FDCEC0BF001016CA112
:101A700070D00101055101E16CD00101725111E0FA
:101A800072A70DD06EA708D00101040E006FDCEC28
:101A90000BF06FEC0AF06086010172971200726B16
:101AA0001200735113E06CB554D073A10DD06FA127
:101AB00008D00101400E006FDCEC0BF0CEEC00F022
:101AC0006086010173911200736B1200745141E042
:101AD0006CA33FD06CB53DD074A10DD071A108D0DE
:101AE0000101800E006FDCEC0BF046EC0EF060861E
:101AF00001017491120074A30DD071A308D00101EB
:101B0000810E006FDCEC0BF09EEC0EF060860101A4
:101B10007493120074A50DD071A508D00101820E36
:101B2000006FDCEC0BF0F6EC0EF0608601017495B2
:101B3000120074A70DD071A708D00101830E006FA9
:101B4000DCEC0BF04EEC0FF0608601017497120094
:101B5000746B1200F7EC0BF001016CA136D001019F
:101B6000055133E0C00E0515800A09E0C00A03E004
:101B7000400A04E0120001016CB527D012000101F7
:101B80006CA323D06CB521D03F0E01010515030ACB
:101B900016E0010A0FE0030A08E0010A01E0120062
:101BA000010171A111D00BEF09F0010171A30CD05B
:101BB0000CEF09F0010171A507D00DEF09F001014B
:101BC00071A702D00EEF09F01200120001016CA102
:101BD00023D0715113E071A102D007EC09F001018B
:101BE00071A302D008EC09F0010171A502D009EC43
:101BF00009F0010171A702D00AEC09F001016E5150
:101C000004E06EA702D099EC0AF001016F5104E0E4
:0A1C10006FA102D0BAEC00F0120040
:061C1A006FCF33F1010160
:101C2000800E006F60C001F161C002F162C003F17B
:101C300063C004F113EC0CF005C16EF000016E51AD
:101C400002E00101708112006FCF33F16EC000F12C
:101C50004DEC0CF001017091120069C0E9FF6AC0FF
:101C6000EAFF66CFEEFF67CFEEFF68CFEEFF69CFEA
:101C7000EEFF6ACFEEFF6BCFEEFF6CCFEEFF6DCFC6
:101C8000EEFF0F0E65140001686F120064C061FF63
:101C900065C062FF66C063FF67C064FF6CC0E9FF98
:101CA0006DC0EAFFEECF66FFEECF67FFEECF68FFB5
:101CB000EECF69FFEECF6AFFEECF6BFFEECF6CFF8A
:101CC000EFCF6DFF6BC065FF12006FCF33F10101E5
:101CD000810E006F6FC001F170C002F171C003F19D
:101CE00072C004F113EC0CF005C17DF000017D51D0
:101CF00002E00101708312006FCF33F17DC000F16B
:101D00004DEC0CF001017093120078C0E9FF79C02E
:101D1000EAFF66CFEEFF67CFEEFF68CFEEFF69CF39
:101D2000EEFF6ACFEEFF6BCFEEFF6CCFEEFF6DCF15
:101D3000EEFF0F0E65140001776F120073C061FF94
:101D400074C062FF75C063FF76C064FF7BC0E9FFAB
:101D50007CC0EAFFEECF66FFEECF67FFEECF68FFF5
:101D6000EECF69FFEECF6AFFEECF6BFFEECF6CFFD9
:101D7000EFCF6DFF7AC065FF12006FCF33F1010125
:101D8000820E006F7EC001F17FC002F180C003F1BE
:101D900081C004F113EC0CF005C18CF000018C51F2
:101DA00002E00101708512006FCF33F18CC000F1A9
:101DB0004DEC0CF001017095120087C0E9FF88C05E
:101DC000EAFF66CFEEFF67CFEEFF68CFEEFF69CF89
:101DD000EEFF6ACFEEFF6BCFEEFF6CCFEEFF6DCF65
:101DE000EEFF0F0E65140001866F120082C061FFC6
:101DF00083C062FF84C063FF85C064FF8AC0E9FFBF
:101E00008BC0EAFFEECF66FFEECF67FFEECF68FF35
:101E1000EECF69FFEECF6AFFEECF6BFFEECF6CFF28
:101E2000EFCF6DFF89C065FF12006FCF33F1010165
:101E3000830E006F8DC001F18EC002F18FC003F1DF
:101E400090C004F113EC0CF005C19BF000019B5114
:101E500002E00101708712006FCF33F19BC000F1E7
:101E60004DEC0CF001017097120096C0E9FF97C08D
:101E7000EAFF66CFEEFF67CFEEFF68CFEEFF69CFD8
:101E8000EEFF6ACFEEFF6BCFEEFF6CCFEEFF6DCFB4
:101E9000EEFF0F0E65140001956F120091C061FFF7
:101EA00092C062FF93C063FF94C064FF99C0E9FFD2
:101EB0009AC0EAFFEECF66FFEECF67FFEECF68FF76
:101EC000EECF69FFEECF6AFFEECF6BFFEECF6CFF78
:0A1ED000EFCF6DFF98C065FF120010
:061EDA0000000000010001
:101EE00000260100DA1E020000260100DA1E0300AF
:101EF00000260200DA1E040000260400DA1E050097
:101F000000260100DA1E060000260200DA1E070085
:101F100000260400DA1E00100005040082270110CC
:101F2000000101009101021000010400920105105E
:101F3000001304002A230810000518008627091042
:101F40000005040090270A100005040095270C10D6
:101F500000130200B0120D100013010042131710FD
:101F6000001302001E121810000501009A27181015
:101F7000010504009B271810020504009F27181074
:101F800003050400A327181004050400A727001266
:101F900000050100AB2700120111040038000012F7
:101FA0000211040078000012030302008D010012E8
:101FB000050301008F0100120603010090010018C3
:101FC00000050100382800180113040090100018C3
:101FD000021301007611011800030100DA1E001A35
:101FE000000501003728001A010504002A28001AFC
:101FF000020504003228001A030504003228001AE2
:10200000040504003228001A050504003228001ACD
:10201000060504003228001A070504003228001AB9
:10202000080504003228011A00030100DA1E00200E
:1020300000000100DA1E002000000100DA1E00602E
:10204000000101003B01026000050100362802602A
:10205000010301003501036000050100362803601B
:102060000103010034010560000501003628056008
:1020700001030100390106600005010036280660F1
:1020800001030100360107600005010036280760E2
:1020900001030100370108600005010036280860CF
:0E20A00001030100380100620003010043014A
:0220AE00810EA1
:1020B000E66EE66A3C0EE66E2AEC12F0E552E55258
:1020C000E5521200D9CFE6FFE1CFD9FF060EE12697
:1020D000D9CF14F0DACF15F0040ED9CFDBFF050EFF
:1020E000DACFDBFF9EAA7FD0040EE66EDBCFE6FFE1
:1020F000050EDBCFE6FF31EC13F0E552E552E55279
:10210000040EDBCFE9FF050EDBCFEAFFEF505208EC
:102110006AE1FD0EDBCFE9FFFE0EDBCFEAFFEE6AE0
:10212000ED6A040EDB2A050E01E3DB2A040EDBCF89
:10213000E9FF050EDBCFEAFFEF50D00F146E156AF2
:1021400014BE1568640E1502F3CF15F01402F45096
:102150001526FD0EDBCFE9FFFE0EDBCFEAFFF3CF46
:10216000EEFF15C0EDFF040EDB2A050E01E3DB2AAE
:10217000040EDBCFE9FF050EDBCFEAFFEF50D00FF7
:10218000146E156A14BE15680A0E1502F3CF15F009
:102190001402F4501526FD0EDBCFE9FFFE0EDBCF57
:1021A000EAFFF350EE261550ED22040EDB2A050E51
:1021B00001E3DB2A040EDBCFE9FF050EDBCFEAFFEC
:1021C000EF50D00F146E156A14BE1568FD0EDBCFEC
:1021D000E9FFFE0EDBCFEAFF1450EE261550ED228C
:1021E000010EF36E01D0F36AF46A060EE15C02E2BE
:0E21F000E16AE552E16EE552E7CFD9FF120039
:0221FE000101DD
:1022000085AB1ED084C186F185C187F1D890863711
:102210008737D89086378737D8908637873787C1F2
:1022200089F1030E8415146EE00E8615141008094A
:10223000876F89C186F182C189F183C188F117D086
:10224000050E82C186F183C187F1000A06E0010113
:10225000D89086378737E804FBE10101896B86C196
:1022600088F187C186F1E00E8815876F886B85BF7E
:10227000878985BD87851200010183A71CD083C192
:1022800014F082C115F0030ED89015321432E80410
:10229000FBE114C088F1200E01011510896F030EB7
:1022A0008315146EFC0E88151410886F85C186F195
:1022B00084C187F10ED083C114F082C115F0050EE0
:1022C000D89015321432E804FBE114C086F115C031
:0E22D00087F1010183B5898D83B9898F1200D2
:0222DE006FCFC0
:1022E00033F10101020E006FFBC001F1FCC002F1ED
:1022F000FDC003F1FEC004F113EC0CF005C1FFF0CA
:102300000001FF5102E001016E8312006FCF33F133
:10231000FFC000F14DEC0CF001016E9312000F0EA6
:10232000651402E1B4EC07F0120001015F51020AEA
:102330001EE0030A01E01200FBC082F1FCC083F141
:10234000FDC084F1FEC085F13CEC11F05DC1E9FFF8
:102350005EC1EAFFEE50EFCFEAFFE96E86C1EEFF05
:1023600087C1EEFF88C1EEFF89C1EEFF12005DC19B
:10237000E9FF5EC1EAFFEE50EFCFEAFFE96EEECF74
:1023800082F1EECF83F1EECF84F1EFCF85F1FFEC58
:1023900010F0010187B50BD0B9DF86C1FBF087C112
:1023A000FCF088C1FDF089C1FEF06FEF11F0010172
:0623B000120E606F120026
:0A23B600060EF66E000EF76E000E24
:1023C000F86E01010900F5507D6F0900F5507E6F30
:1023D00003E17D6701D03DD00900F550786F090019
:1023E000F550796F0900F5507A6F09000900F55032
:1023F000E96E0900F550EA6E090009000900F55080
:102400007B6F0900F5507C6F09000900F6CF7FF162
:10241000F7CF80F1F8CF81F178C1F6FF79C1F7FFEE
:102420007AC1F8FF01017B5302E17C5307E0090008
:10243000F550EE6E7B07F8E27C07F9D77FC1F6FF17
:1024400080C1F7FF81C1F8FF01017D07000E7E5BAF
:04245000BFD71200E0
:0C245400D9CFE6FFDACFE6FFE1CFD9FFD9
:10246000E2CFDAFFAC6AAB6AFD0EDBB0AC88DBA270
:1024700002D0AC8CAB8CDBB4AC8EDBA602D0AB88CC
:1024800001D0AB8ADBB8AC849E98DBBAAB86DBAC00
:1024900002D09D8A01D09D9A9E9ADBAE02D09D8883
:1024A00001D09D98FB0EDB50AF6EFB0EFC0EDBCF18
:1024B00015F015C014F0156A1450B06EAC8AAB8ECE
:1024C000949C948EAC50100B04E0AC50800B01E156
:0E24D000948CE552E5CFDAFFE7CFD9FF12007A
:0224DE006FCFBE
:1024E00033F10101010E006F0101016B026B036BFF
:1024F000046B13EC0CF005C19DF101019D5102E04C
:1025000001016E8112006FCF33F19DC100F14DECDE
:102510000CF001016E9112000F0E6514020823E108
:1025200001016B51675C02E067501DE16650820A51
:1025300016E0030A12E0010A0BE0820A06E0030A31
:1025400001E0120001016C8305D001016C8503D00C
:1025500001016C936C951DEF14F020EC14F01EEC4F
:0825600014F09BEC0CF01200DA
:08256800D6EC13F00001FB6B3F
:10257000100EFC6FFD6BFE6B0101020E6B6F010113
:102580006D6B040E0101576F586B0101596B5A6B4B
:1025900001015B6B60EC13F057EC10F028EC07F0D6
:1025A0009BEC0CF001016CA1FFD76C51040B02E015
:1025B000808201D080926C51010B02E0808401D0B6
:1025C00080946C51020B02E0808601D0809601015C
:1025D000718171830DEC14F07EEC07F0DDEC13F0EB
:0A25E0000009F8E0E6EC0DF0F5D775
:0625EA0001015F51020A2D
:1025F00005E0030A03E0010A01E0120012000101F4
:102600005F51020A05E0030A03E0010A01E012003B
:10261000120001015F51020A05E0030A03E0010A0A
:1026200001E01200120001015F51020A05E0030AF5
:1026300003E0010A01E01200120001015F51020AE9
:1026400005E0030A03E0010A01E0120012000101A3
:102650005F51020A05E0030A03E0010A01E01200EB
:02266000120066
:0E266200D9CFE6FFDACFE6FFE1CFD9FFE2CF16
:10267000DAFFE652E652DF6AFB0EDB50DF5C18E25F
:102680009EAAFED784EC13F0E76E010EE7CFDBFFC6
:10269000FC0EDBCFE9FFFD0EDBCFEAFF010EDBCF47
:1026A000EFFFFC0EDB2AFD0E01E3DB2ADF2AE4D775
:1026B000E552E552E552E5CFDAFFE7CFD9FF120048
:1026C0000F0EC16E92909292929492969684809000
:1026D0008092809480961200D9CFE6FFE1CFD9FF97
:1026E000E652DF6A84A408D001019E5102E1010E86
:1026F000DF6E010E9E6F02D001019E6BDF50E5522E
:08270000E552E7CFD9FF1200FA
:08270800D9CFE6FFDACFE6FFAE
:10271000E1CFD9FFE2CFDAFFE652F20E01019B17BB
:10272000ABAC03D09B91ABB09B81ABB49B85ABB200
:102730009B87AE50DF6EDF50E552E552E5CFDAFF02
:06274000E7CFD9FF1200F3
:0A27460008C012F008500D02F4CF95
:1027500007F0F3CF06F009500E02F4CF09F0F3CFE3
:1027600008F00D02F3500726F4500822E86A092207
:1027700012500E02F3500726F4500822E86A09228C
:02278000000C4B
:0E2782004A930800554C5452414C4A554400AD
:1027900056312E300056312E3000061111222233D0
:0B27A0003322224444222255552222FD
:0127AB00032A
:0427AC00470ED56E91
:1027B000630ED66ED58EF2941200F2A407D00101FA
:0E27C000640E9C6FE850D626F294010C000CBB
:0227CE00000EFB
:1027D000F36E00EE00F00D0E01D81200EA6002D098
:0E27E000EE6AFCD7F350E9601200EE6AFCD7F7
:0227EE001CEEDF
:1027F00000F02CEE00F0F86A019CDBEC11F023EC09
:0A28000014F0B4EC12F0FBD7120044
:06280A00122329022879C7
:0A2810009438122329022879943825
:06281A00DAEC0AF0C2EC4A
:0A2820000CF031EC0DF0AAEF0DF002
:06282A0008010060080136
:092830000062080000000108022A
:01283900009E
:06283A001200FF00120075
:0628400012008C70120072
:0228460012007E
:072848000000010000000187
:01284F000880
:0228500009007D
:02285200010083
:020000040030CA
:0100010002FC
:010002001FDE
:010003001EDE
:010005008278
:010006008178
:010008000FE8
:01000900C036
:01000A000FE6
:01000B00E014
:01000C000FE4
:01000D0040B2
:00000001FF
